:020000040800F2
:10000000280400204D04000865010008670100086D
:100010006B0100086F010008730100080000000078
:100020000000000000000000000000007701000850
:1000300079010008000000007B0100087D01000834
:1000400067040008670400086704000867040008E4
:1000500067040008670400086704000867040008D4
:1000600067040008670400086704000867040008C4
:1000700067040008670400086704000867040008B4
:10008000670400086704000867040008297700086F
:10009000B9750008277700082B7700086704000867
:1000A0006704000867040008670400086704000884
:1000B0006704000867040008670400086704000874
:1000C0006704000867040008670400086704000864
:1000D00067040008670400082B750008670400081F
:1000E000670400086704000885010008000000009C
:1000F0000000000000000000000000000000000000
:100100000000000000000000670400086704000809
:100110006704000867040008670400086704000813
:100120006704000867040008670400086704000803
:1001300067040008670400086704000867040008F3
:10014000670400086704000867040008AD010008A0
:10015000DFF80CD002F0B2F800480047857A0008BA
:1001600028040020704700BFFEE700BFFEE700BF85
:10017000FEE700BFFEE770477047704710B506F016
:10018000A3FD10BD10B50C48807A50B10B48006833
:1001900020F006000949086000F09AF8064804F0CB
:1001A0001AFE4FF4802001F052F910BD10B502483C
:1001B00005F043FC10BD0000F02A002010ED00E027
:1001C0000CB50020019000909448006840F4803005
:1001D0009249086000BF9148006800F40030009028
:1001E0000198401C0190009818B90198B0F5A06FD3
:1001F000F1D18A48006800F4003010B1012000906D
:1002000001E000200090009801285CD1844800683B
:1002100040F01000824908600846006820F00300A2
:1002200008600846006840F0020008607B484068AB
:100230007A4948600846406848600846406840F48B
:10024000806048600846C06A764908407349C862C1
:100250000846C06A744908437049C8620846006885
:1002600040F08060086000BF6C48006800F00060EB
:100270000028F9D06948406820F47C10674948603C
:100280000846406840F4E81048600846006840F0BE
:100290008070086000BF6148006800F000700028AE
:1002A000F9D05E48406820F003005C494860084689
:1002B000406840F00200486000BF5848406800F0C5
:1002C0000C000828F9D10CBD10B5FFF779FF10BD5F
:1002D00010B55248006840F00100504908600846D7
:1002E0004068524908404D494860084600685049F6
:1002F00008404A4908600846006820F480200860E9
:100300000846406820F4FE0048600846006820F077
:10031000A05008604FF47F0088600020C8624FF44E
:100320001F008860FFF7D0FF4FF000604149086070
:1003300010BDF0B50021002000230024002200257C
:100340000026364F7F6807F00C0121B1042908D040
:1003500008294BD10BE0384FDFF8E0C0CCF8007033
:100360004AE0374FDFF8D4C0CCF8007044E02B4FA0
:100370007F6807F47010294F7F6807F48033800C82
:100380000D2801D0801C00E0062033B92D4F4743D3
:10039000DFF8A8C0CCF8007027E0204FFF6A07F410
:1003A00080341E4FFF6A07F00F077A1C44B9244FB0
:1003B000B7FBF2F74743DFF884C0CCF8007014E0D5
:1003C000164FFF6AC7F303177D1C144FFF6AC7F36C
:1003D0000327BE1C1A4FB7FBF5F77743B7FBF2F7BD
:1003E0004743DFF858C0CCF8007005E0124FDFF843
:1003F0004CC0CCF8007000BF00BF084F7F68C7F347
:100400000317DFF844C01CF807100C4F3F68CF40BB
:10041000DFF828C0CCF80070F0BD000000100240EA
:100420000020024000F0FEFF240801000000FFF061
:10043000FFFFF6FE08ED00E000127A000000002049
:10044000001BB70000093D0004000020064880475B
:1004500006480047FEE7FEE7FEE7FEE7FEE7FEE7A9
:10046000FEE7FEE7FEE7FEE7D102000851010008C3
:1004700010B50446FB48844209D10121880301F0EC
:10048000BFFE00214FF4804001F0BAFE32E0F64892
:10049000844209D10121480401F0BFFE00214FF43C
:1004A000003001F0BAFE25E0F048844209D1012174
:1004B000880401F0B2FE00214FF4802001F0ADFE6F
:1004C00018E0EB48844209D10121C80401F0A5FEDF
:1004D00000214FF4002001F0A0FE0BE0E54884422B
:1004E00008D10121080501F098FE00214FF4801089
:1004F00001F093FE10BD2DE9F04786B005460E468B
:100500000024A24600BFA1460027B08900B100BF69
:100510002F462C8A4CF6FF700440F08804432C824E
:10052000AC894EF6F3100440B088318908437189D4
:1005300008430443AC81AC8A4FF6FF400440B089C5
:100540000443AC8201A801F053FDC648874202D1A2
:10055000DDF810A001E0DDF80CA0A88900F400404F
:1005600040B10AEBCA0000EB0A1031684900B0FB49
:10057000F1F807E00AEBCA0000EB0A1031688900C5
:10058000B0FBF1F86420B8FBF0F00401200964210D
:1005900001FB1089A88900F4004040B1322000EB33
:1005A000C900B0FBF1F000F00700044308E032207E
:1005B00000EB09106421B0FBF1F000F00F000443E0
:1005C0002C8106B0BDE8F0874FF416510160002180
:1005D0008180C18001810C2141810021818170478E
:1005E00010B502460020108A4FF2FF0318400B8816
:1005F0004C8823438C882343CC88234318431082A0
:1006000010BD0021018041808180C180704721B1EF
:10061000828942F40052828104E082894DF6FF73A0
:100620001A4082817047F0B5034600240026002559
:10063000002040F66A17B94200D100BF1846C1F346
:10064000421401F01F06012707FA06F5012C01D11B
:100650000C3004E0022C01D1103000E014301AB14B
:1006600007682F43076002E00768AF430760F0BDEB
:100670001AB1838A0B43838202E0838A8B4383828D
:100680007047028A4FF6F0731A400282028A0A43C8
:100690000282704782894FF2FF731A4082818289F9
:1006A0000A438281704721B1828942F0020282812D
:1006B00004E082894FF6FD731A4082817047028AF6
:1006C0004FF6DF731A400282028A0A4302827047A1
:1006D00021B1028A42F48042028204E0028A4BF68F
:1006E000FF731A4002827047C1F30802828070478C
:1006F00001468888C0F308007047818941F00101F4
:1007000081817047028BD2B20283028B42EA0122BE
:1007100002837047028B02F47F420283028B0A43FA
:100720000283704721B1828A42F02002828204E073
:10073000828A4FF6DF731A408282704721B1828A23
:1007400042F01002828204E0828A4FF6EF731A4070
:100750008282704721B1828A42F00802828204E0DC
:10076000828A4FF6F7731A408282704721B18289DC
:1007700042F40042828103E08289C2F30E02828148
:10078000704721B1828A42F40062828204E0828A48
:100790004FF2FF731A4082827047828A4FF6FB73D2
:1007A0001A408282828A0A438282704721B1828AF9
:1007B00042F00202828204E0828A4FF6FD731A4000
:1007C0008282704702460020B1F5007F00D100BF51
:1007D00013880B400BB1012000E00020704701F4AA
:1007E0000072B2F5007F00D100BFCA43028070479B
:1007F00070B50246002400230025002040F66A164A
:10080000B14200D100BFC1F3421501F01F03012620
:1008100006FA03F3012D02D19689334006E0022D3A
:1008200002D1168A334001E0968A33400C12012629
:1008300006FA04F41688344013B10CB1012000E02C
:10084000002070BD10B50022002340F66A14A142BA
:1008500000D100BF0A1201249440A3B2DC430480FB
:1008600010BD000000380140004400400048004036
:10087000004C00400050004031490143314A1160B2
:10088000704770B5002100230F22C47804B32D4CAB
:10089000246804F4E064C4F5E064210AC1F10403AF
:1008A000CA40447804FA03F18478144021430901D2
:1008B000254C0678A155047804F01F050124AC40AE
:1008C00005786D11AD0005F1E025C5F8004109E09E
:1008D000047804F01F050124AC401C4D0678761105
:1008E00045F8264070BD1A4A0A400243154B1B1FAB
:1008F0001A60704739B1134A121D12680243114B36
:100900001B1D1A6006E00F4A121D126882430D4B30
:100910001B1D1A607047042808D14FF0E0210969B7
:1009200041F004014FF0E022116107E04FF0E021B7
:10093000096921F004014FF0E022116170470000C5
:100940000000FA050CED00E000E400E080E100E0CA
:1009500080FFFF1F10B50446FE48844209D10121E3
:10096000480601F05AFC00214FF0007001F055FCE0
:1009700008E00121880601F050FC00214FF0806062
:1009800001F04BFC10BD30B5024600200023146876
:1009900024F002041460146844F00104146000E0C0
:1009A0005B1C546804F001041CB94FF6FF74A342A9
:1009B000F6D1546804F001040CB900206CE08C7985
:1009C000012C04D1146844F08004146003E014681E
:1009D00024F080041460CC79012C04D1146844F014
:1009E0004004146003E0146824F0400414600C7A9E
:1009F000012C04D1146844F02004146003E014684E
:100A000024F0200414604C7A012C04D1146844F0C2
:100A10001004146003E0146824F0100414608C7A4D
:100A2000012C04D1146844F00804146003E0146835
:100A300024F008041460CC7A012C04D1146844F02A
:100A40000404146003E0146824F0040414608C7837
:100A5000A407CD7844EA05640D7944EA05444D794C
:100A600044EA05540D886D1E2C43D461146824F0AB
:100A700001041460002300E05B1C546804F00104CE
:100A80001CB14FF6FF74A342F6D1546804F0010480
:100A90000CB1002000E0012030BD10B50021837AA8
:100AA000012202FA03F1AC4A126842F00102AA4B99
:100AB0001A60A94A1C3212688A43A74B1C331A6079
:100AC000027BCAB9A44A0C3212688A43A24B0C3387
:100AD0001A604288C38842EA03439F4A4032847ABC
:100AE00042F834300288838842EA03439A4A40320B
:100AF000847A02EBC4025360027B012A19D1964A20
:100B00000C3212680A43944B0C331A6042880388F3
:100B100042EA0343904A4032847A42F83430C28831
:100B2000838842EA03438C4A4032847A02EBC4024F
:100B30005360C27A3AB9884A121D12688A43864BBA
:100B40001B1D1A6006E0844A121D12680A43824B7C
:100B50001B1D1A60028932B97F4A143212688A4317
:100B60007D4B14331A600289012A06D17A4A143265
:100B700012680A43784B14331A60427B012A06D16B
:100B8000754A1C3212680A43734B1C331A60724A4E
:100B9000126822F00102704B1A6010BD00218171B1
:100BA000C171017241728172C1728170C170032181
:100BB0000171022141710121018070476649096874
:100BC00041F00101644A11601146096843F60E7252
:100BD0009143614A11601146096841EA00211160A0
:100BE0001146096821F001011160704721B10268C6
:100BF00042F48032026003E0026822F48032026034
:100C00007047E1B1026842F0800202604FF4C272A4
:100C1000125842F480734FF4C27213504FF4CA72E8
:100C2000125842F480734FF4CA7213504FF4D272C8
:100C3000125842F480734FF4D27213501BE00268D2
:100C400022F0800202604FF4C272125822F48073C4
:100C50004FF4C27213504FF4CA72125822F48073C8
:100C60004FF4CA7213504FF4D272125822F48073A8
:100C70004FF4D2721350704710B5024600209368AB
:100C800003F08063B3F1806F00D110E0936803F04C
:100C90000063B3F1006F01D1012008E0936803F015
:100CA0008053B3F1805F01D1022000E004200428CA
:100CB00079D002F5C07303EB00131B6803F0010445
:100CC00002F5C07303EB00131C600B7A7BB94B7AFF
:100CD0000C8843EA445302F5C07404EB0014246802
:100CE000234302F5C07404EB0014236010E00B7A78
:100CF0004C6843EAC4034C7A234302F5C07404EB06
:100D000000142468234302F5C07404EB001423602C
:100D10008B7A03F00F038B7202F5C07303EB0013A1
:100D20005B6823F00F0402F5C07303EB00135C60F3
:100D300002F5C07303EB00135B688C7A234302F562
:100D4000C07404EB001463608B7B1C064B7B44EA8D
:100D5000034403E000640040006600400B7B44EA6B
:100D60000323CC7A234302F5C07404EB0014A36080
:100D70008B7C1C064B7C44EA03440B7C44EA032333
:100D8000CC7B234302F5C07404EB0014E36002F54E
:100D9000C07303EB00131B6843F0010402F5C0733A
:100DA00003EB00131C6010BD10B50246002321B1F7
:100DB000012907D002290FD109E09068F94C00EA17
:100DC00004030BE09068F84C00EA040306E0906826
:100DD000F64C00EA040301E0002300BF00BFF44C1E
:100DE000181BA34216D007DC83B16FF08060184453
:100DF00070B1022818D111E0B0F5007F10D0ED4C91
:100E0000204448B1B0F5003F0ED10BE002230DE0C5
:100E100000230BE0002309E0002307E0012305E0A5
:100E2000012303E0012301E0002300BF00BFD8B28B
:100E300010BD21B1012907D002290FD109E0826834
:100E400042F0800282600AE0826842F400428260DE
:100E500005E0826842F40002826000E000BF00BF4B
:100E6000704710B500F5D87303EB01131B6803F04E
:100E700004031372137A53B900F5D87303EB01130B
:100E80001B6840F2FF7404EA5353136009E000F555
:100E9000D87303EB01131B686FF0604404EAD303BB
:100EA000536000F5D87303EB01131B6803F00203D2
:100EB000537200F5D87303EB01135B6803F00F0363
:100EC000937200F5D87303EB01135B681B0AD374AC
:100ED00000F5D87303EB01139B68D37200F5D87348
:100EE00003EB01139B681C0A147300F5D87303EB22
:100EF00001139B681C0C547300F5D87303EB0113AA
:100F00009B681B0E937300F5D87303EB0113DB682A
:100F1000D37300F5D87303EB0113DB681C0A147458
:100F200000F5D87303EB0113DB681C0C547400F557
:100F3000D87303EB0113DB681B0E937421B9C368EC
:100F400043F02003C36003E0036943F0200303611F
:100F500010BD21B9C26842F02002C26003E00269FC
:100F600042F02002026170470246002019B9D3689E
:100F700003F0030006E0012903D1136903F0030025
:100F800000E00020704710B502460B4600204FF6E7
:100F9000FF71BBB9146824F0020444F0010414602A
:100FA00000E0491E546804F00304012C01D000291C
:100FB000F7D1546804F00304012C01D0002032E082
:100FC000012030E0012B13D1146824F003041460D5
:100FD00000E0491E546804F003040CB10029F8D164
:100FE000546804F003040CB100201CE001201AE056
:100FF000022B17D1146824F0010444F00204146099
:1010000000E0491E546804F00304022C01D00029BA
:10101000F7D1546804F00304022C01D0002002E050
:10102000012000E0002010BD014600200A6822F0E7
:10103000010242F002020A604A6802F00302022A38
:1010400000D10120704701464FF6FF7200200B6867
:1010500023F002030B6000E0521E4B6803F0020312
:10106000022B01D1002AF7D14B6803F00203022BB7
:1010700000D001207047014600208A6902F070000C
:101080007047014600208A69100E70470146002013
:101090008A69C2F3074070471AB143690B43436141
:1010A00002E043698B434361704710B5024600205C
:1010B00001F4700343B19369C1F3130423400BB1EE
:1010C00001202DE000202BE001F0807343B1536834
:1010D000C1F3130423400BB1012021E000201FE0E5
:1010E00001F0006343B19368C1F3130423400BB1D3
:1010F000012015E0002013E001F0007343B1D36834
:10110000C1F3130423400BB1012009E0002007E0E4
:101110001369C1F3130423400BB1012000E0002048
:1011200010BD0022244B994202D10023836111E0BB
:10113000C1F3130201F000730BB1C2600AE001F0C9
:1011400080630BB1026105E001F000630BB18260C6
:1011500000E0426070470246002002EA01030BB142
:10116000012000E00020704770B504460D460026BF
:1011700060692840002872D0B5F5807F69D01DDCF9
:10118000082D42D006DC012D2DD0022D31D0042DAA
:101190007FD134E0102D3ED0202D42D0402D78D18B
:1011A00045E00000030000040003000800000310F5
:1011B000000100080001FFF77000F030B5F5004FA6
:1011C00061D009DCB5F5007F4AD0B5F5806F4DD010
:1011D000B5F5006F5DD150E0B5F5803F2DD0B5F588
:1011E000003F56D12FE0A0685549FFF7B4FF0646EF
:1011F00051E0E0680321FFF7AEFF06464BE0E068F0
:101200000821FFF7A8FF064645E0E0681021FFF738
:10121000A2FF06463FE020690321FFF79CFF064638
:1012200039E020690821FFF796FF064633E0206980
:101230001021FFF790FF06462DE060680821FFF7B8
:101240008AFF064627E060681021FFF784FF064604
:1012500021E0A0690121FFF77EFF06461BE01BE0AD
:10126000A0690221FFF777FF064614E0A069042178
:10127000FFF771FF06460EE00BE0A0697021FFF753
:101280006AFF064607E060680421FFF764FF064630
:1012900001E0002600BF00E00026304670BDB1F539
:1012A000007F3AD00FDC202928D006DC01291CD091
:1012B00004291DD0082940D11DE0402921D0B1F5D5
:1012C000807F3AD126E0B1F5004F31D006DCB1F590
:1012D000806F25D0B1F5006F2FD124E0B1F5803FAC
:1012E00012D0B1F5003F28D111E0154A826025E007
:1012F0000822C26022E01022C2601FE008220261C0
:101300001CE01022026119E00822426016E010225F
:10131000426013E00422426010E0042242600DE0CB
:10132000042242600AE0002282610422426005E059
:10133000002282610422426000E000BF00BF7047CB
:1013400001010100002044490860091D0860091DD1
:101350000860091D086041483F4914310860704722
:1013600000213D498279002A3AD00A461268036872
:101370009A430B461A600A1D126803689A430B1DB4
:101380001A60027911440A6803681A430A60324AF3
:101390000832126803689A432F4B08331A601A1DEB
:1013A000126803689A432C4B0C331A604279102A56
:1013B0000ED11A1F126803681A43274B08331A60AC
:1013C0001A1D126803681A43234B0C331A600DE090
:1013D0002149427911440A6803681A430A6005E00A
:1013E000027911440A6803689A430A607047002131
:1013F000016001710C214171002181717047164912
:10140000103109680143144A1032116070470146D7
:101410000020114A143212680A400AB1012000E08B
:10142000002070470C4914310860704701460020C5
:101430000022094B1B6803EA0102074B14331B68A7
:101440000B4013B10AB1012000E0002070470249AF
:10145000143108607047000000040140FFFF0F00D6
:1014600001460020FE4A106800F038000843106072
:101470007047FB49096821F00801F94A11601146DB
:101480000968014311607047F549096821F01001AE
:10149000F34A116011460968014311607047F14831
:1014A000EF494860F04848607047EE48EC494860B2
:1014B000ED4848607047EA48006940F08000E8491C
:1014C00008617047E648006940F08000E44908611F
:1014D00070470420E249C96801F0010109B1012007
:1014E0000EE0DF49C96801F0040109B1022007E0FC
:1014F000DB49C96801F0100109B1032000E00420B4
:10150000704700B502460423FFF7E3FF034603E0FC
:10151000FFF7DFFF0346521E012B01D1002AF7D14E
:1015200002B90523184600BD30B5044604254FF422
:101530003020FFF7E6FF0546042D17D1C8480069A3
:1015400040F00200C649086108464461006940F065
:10155000400008614FF43020FFF7D3FF0546C04834
:10156000006941F6FD710840BD490861284630BD5B
:1015700010B504244FF43020FFF7C3FF0446042CB9
:1015800016D1B748006940F00400B5490861084623
:10159000006940F0400008614FF43020FFF7B1FFD0
:1015A0000446AF48006941F6FB710840AC49086148
:1015B000204610BD00B502460423FFF78AFF03460C
:1015C00003E0FFF786FF0346521E012B01D1002ADC
:1015D000F7D102B90523184600BD10B504244FF415
:1015E0003020FFF7E7FF0446042C16D19C48006921
:1015F00040F004009A4908610846006940F0400044
:1016000008614FF43020FFF7D5FF04469448006985
:1016100041F6FB71084092490861204610BD002048
:101620008F49C96901F0020109B1012000E00020E1
:10163000704730B5A5250424FFF7F1FF00B1002560
:101640004FF43020FFF75DFF0446042C3AD1854863
:1016500083498860844888600846006940F020001B
:1016600008610846006940F0400008614FF43020EE
:10167000FFF747FF0446042C1BD17948006941F667
:10168000DF710840764908610846006940F01000A3
:10169000086176480580E002FFF733FF0446052C19
:1016A00010D06F48006941F6EF7108406C4908613D
:1016B00008E0052C06D06A48006941F6EF71084041
:1016C00067490861204630BD78B506460C460425BA
:1016D00000200090E802FFF714FF0546042D24D1F6
:1016E0005F48006940F001005D4908613480E8020C
:1016F000FFF707FF0546042D10D1B01C0090200C09
:1017000000990880E802FFF7FCFE0546544800698E
:1017100041F6FE7108405249086106E050480069F0
:1017200041F6FE7108404E490861284678BD70B503
:1017300004460D460426F002FFF7E3FE0646042E9B
:1017400011D14748006940F00100454908612580F2
:10175000F002FFF7D6FE06464148006941F6FE71E9
:1017600008403F490861304670BD70B505460E46D9
:101770000424E002FFF7C5FE0446042C17D13948C3
:1017800037498860384888600846006940F0100092
:1017900008612E80E002FFF7B4FE0446052C06D057
:1017A0002F48006941F6EF7108402D490861204635
:1017B00070BD2DE9F04304464FF6FF763746B0463C
:1017C000B1460425E443E6B2C4F30727C4F307484F
:1017D0004FEA1469E802FFF794FE0546042D49D14B
:1017E00020481F498860204888600846006940F00A
:1017F00010000861FF2E06D01C4808300680E80261
:10180000FFF77FFE0546042D08D1FF2F06D01748AD
:101810000A300780E802FFF774FE0546042D0AD15E
:10182000B8F1FF0F07D011480C30A0F80080E80293
:10183000FFF767FE0546042D0AD1B9F1FF0F07D067
:101840000A480E30A0F80090E802FFF75AFE05465D
:10185000052D0FD00248006941F6EF71084007E0FE
:101860000020024023016745AB89EFCD00F8FF1F40
:10187000664908612846BDE8F08330B50546042472
:101880004FF43020FFF73DFE0446042C41D1604860
:101890005E4988605F4888600846006940F0200023
:1018A00008610846006940F0400008614FF43020AC
:1018B000FFF727FE0446042C22D15448006941F664
:1018C000DF710840514908610846006940F0100086
:1018D00008611DB100205049088002E0A5204E4952
:1018E00008804FF43020FFF70CFE0446052C10D082
:1018F0004648006941F6EF7108404449086108E034
:10190000052C06D04148006941F6DF7108403F4987
:101910000861204630BDF0B505460E461746042442
:101920003B483A4988603B488860E002FFF7E9FDA0
:101930000446042C19D13548006940F010003349A1
:10194000086147F0F800304328433349891C088078
:10195000E002FFF7D6FD0446052C06D02B480069AF
:1019600041F6EF710840294908612046F0BD27483B
:10197000C069800870472548006A704700202349E5
:10198000096801F0200109B1012000E00020704742
:1019900029B11E4A126902431C4B1A6104E01B4A1A
:1019A00012698243194B1A617047014600200129D0
:1019B00008D1164AD26902F001020AB1012008E0FA
:1019C000002006E0114AD2680A400AB1012000E076
:1019D000002070470D49C860704704200B49C96852
:1019E00001F0010109B101200EE00849C96801F0C8
:1019F000040109B1022007E00449C96801F010019F
:101A000009B1032000E004207047000000200240DC
:101A100023016745AB89EFCD00F8FF1F10B50446E1
:101A2000CC48844208D10121042000F0E9FB0021C8
:101A3000042000F0E5FB46E0C748844208D10121BC
:101A4000082000F0DDFB0021082000F0D9FB3AE07F
:101A5000C248844208D10121102000F0D1FB0021AE
:101A6000102000F0CDFB2EE0BD48844208D10121BA
:101A7000202000F0C5FB0021202000F0C1FB22E067
:101A8000B848844208D10121402000F0B9FB002170
:101A9000402000F0B5FB16E0B348844208D1012194
:101AA000802000F0ADFB0021802000F0A9FB0AE0BF
:101AB000AE48844207D10121801500F0A1FB00212E
:101AC000A01500F09DFB10BD10B50121084600F0E7
:101AD00097FB0021012000F093FB10BD2DE9F041A0
:101AE000024600250026002000230024002791F84C
:101AF00003C00CF00F0591F803C00CF0100CBCF102
:101B0000000F03D091F802C04CEA050591F800C01F
:101B1000BCF1000F31D0146800202BE04FF0010C15
:101B20000CFA00F3B1F800C00CEA03069E4220D183
:101B300083004FF00F0C0CFA03F7BC4305FA03FCCB
:101B40004CEA040491F803C0BCF1280F06D14FF011
:101B5000010C0CFA00FCC2F814C00AE091F803C0B2
:101B6000BCF1480F05D14FF0010C0CFA00FCC2F893
:101B700010C0401C0828D1D31460B1F800C0BCF1DB
:101B8000FF0F34DD546800202EE000F1080C4FF008
:101B9000010808FA0CF3B1F800C00CEA03069E42F3
:101BA00021D183004FF00F0C0CFA03F7BC4305FA68
:101BB00003FC4CEA040491F803C0BCF1280F05D1E2
:101BC00000F1080C08FA0CF8C2F8148091F803C070
:101BD000BCF1480F07D100F1080C4FF0010808FADA
:101BE0000CF8C2F81080401C0828CED35460BDE821
:101BF000F0814FF6FF710180022181700421C170D4
:101C000070470246002093680B400BB1012000E0B2
:101C1000002070470146886880B270470246002065
:101C2000D3680B400BB1012000E000207047014653
:101C3000C86880B2704701617047416170470AB15E
:101C4000016100E041617047C16070474FF480322C
:101C50000A438261816182618269826970470246BA
:101C60000020434B18684FF68073184040EA02107A
:101C700008433F4B186070473E49C8617047F0B554
:101C80000A46002300240021002500F00046B6F19A
:101C9000004F02D1364EF16901E0354E7168C0F354
:101CA000034583B200F44016B6F5401F08D121F079
:101CB00070612F4E766826F070662D4F7E6012E0C0
:101CC00000F48016B6F5801F06D1032606FA05F447
:101CD000A14341F0706106E0460D360103FA06F6B5
:101CE000B14341F0706122B1460D360103FA06F6A8
:101CF000314300F00046B6F1004F02D11C4EF161B5
:101D000001E01B4E7160F0BD30B500228B071C0F47
:101D10000F2303FA04F2164B08338C1053F82430C7
:101D20009343134C08348D1044F8253023468C100F
:101D300053F824308C07240F00FA04F423430C4C8E
:101D400008348D1044F8253030BD0A49DC31086074
:101D50007047000000080140000C014000100140E5
:101D60000014014000180140001C01400020014007
:101D70000000014000002042FB48006840F00100E4
:101D8000F949086008464068F8490840F649486043
:101D900008460068F6490840F349086008460068AC
:101DA00020F4802008600846406820F4FE00486067
:101DB0000846006820F0A05008604FF47F0088605B
:101DC0000020C8627047E849096821F48031E64A7A
:101DD00011601146096821F480211160B0F5803F3F
:101DE00003D0B0F5802F0ED106E0DF49096841F439
:101DF0008031DD4A116007E0DB49096841F4A02128
:101E0000D94A116000E000BF00BF704710B501461D
:101E10000022002300204A11012A02D1D24C23685B
:101E200006E0022A02D1D04C236A01E0CE4C636A5C
:101E300001F01F02012494401C400CB1012000E07D
:101E4000002010BD38B5002000900024002500BF00
:101E50003120FFF7DBFF05460098401C00900098FA
:101E6000B0F5A06F01D0002DF2D03120FFF7CEFFEA
:101E700008B1012400E00024204638BD01460020BE
:101E8000B94A106820F0F80040EAC10010607047BD
:101E9000B8490860704702460020B34B586820F4E8
:101EA000741042EA01031843AF4B58607047B149C0
:101EB0000866704702460020AB4BD86AAE4B18400C
:101EC00042EA01031843A84BD8627047014600203C
:101ED000A54AD06A20F0F0000843D062704701465E
:101EE0000020A14AD06A20F470600843D062704795
:101EF000A04988667047014600209B4AD06A20F4BA
:101F000070400843D06270479A490867704701469D
:101F10000020954A506820F0030008435060704745
:101F20009148406800F00C007047014600208E4A3E
:101F3000506820F0F00008435060704701460020D0
:101F4000894A506820F4E0600843506070470146B9
:101F50000020854A506820F4605040EAC10050607B
:101F6000704729B1804A527A02437F4B5A7204E08B
:101F70007D4A527A82437C4B5A7270477D49D831F0
:101F80000860704701460020774A506820F44040BE
:101F90000843506070477949086070477749091DC8
:101FA000086070470021704A203211706E4A82F832
:101FB0002010012802D004280AD104E001216A4A35
:101FC0002032117005E00521674A2032117000E0CF
:101FD00000BF00BF70476A49086070476249096ADC
:101FE0000143614A1162704765494439086070478E
:101FF0002DE9F041002100220025002300260024C5
:1020000000278C46DFF86081D8F8048008F00C01C6
:1020100021B1042907D0082959D109E0DFF86481EA
:10202000C0F8008058E0DFF86081C0F8008053E01D
:10203000DFF83481D8F8048008F47012DFF82881C2
:10204000D8F8048008F48035920C0D2A01D0921C37
:1020500000E0062235B9DFF8348102FB08F8C0F849
:10206000008033E0DFF80081D8F82C8008F4803657
:10207000DFF8F480D8F82C8008F00F0808F101048C
:1020800046B9DFF80481B8FBF4F808FB02F8C0F8A1
:1020900000801BE0DFF8D080D8F82C80C8F303184C
:1020A00008F10107DFF8C080D8F82C80C8F30328B6
:1020B00008F1020CDFF8D080B8FBF7F808FB0CF849
:1020C000B8FBF4F808FB02F8C0F8008004E0DFF881
:1020D000B480C0F8008000BF00BFDFF88C80D8F863
:1020E000048008F0F0010909DFF8A48018F8013035
:1020F000D0F8008028FA03F8C0F80480DFF8688080
:10210000D8F8048008F4E061090ADFF8848018F840
:102110000130D0F8048028FA03F8C0F80880DFF80E
:102120004880D8F8048008F46051C90ADFF860805C
:1021300018F80130D0F8048028FA03F8C0F80C80B1
:10214000DFF82480D8F8048008F44041890BDFF8D8
:10215000448018F80130D0F80C80B8FBF3F8C0F8D0
:102160001080BDE8F0810000001002400000FFF088
:10217000FFFFF6FE00004242F0FFFEFFC4054242B0
:102180008004424200127A00001BB70000093D00A3
:10219000140000202400002029B1354A526902436E
:1021A000334B5A6104E0324A52698243304B5A61E0
:1021B000704729B12E4A926902432D4B9A6104E07F
:1021C0002B4A926982432A4B9A61704729B1284A67
:1021D000D2690243264BDA6104E0254AD269824380
:1021E000234BDA61704729B1214A926A0243204B9E
:1021F0009A6204E01E4A926A82431D4B9A627047BB
:1022000029B11B4AD2680243194BDA6004E0184A2C
:10221000D2688243164BDA60704729B1144A1269BA
:102220000243134B1A6104E0114A12698243104BB6
:102230001A6170470F49086070470F49C8647047BA
:102240000B49C87170470A48406A40F080700849DD
:102250004862704701460020054A92680A400AB168
:10226000012000E00020704701498872704700009B
:102270000010024040044242000042420E49086001
:1022800070470D49486070470B49886070474AF6AF
:10229000AA200949086070474CF6CC4006490860FE
:1022A000704701460020044AD2680A400AB1012062
:1022B00000E000207047000000300040064C074D51
:1022C00006E0E06840F0010394E807009847103406
:1022D000AC42F6D3FDF740FF00230008402300087E
:1022E00002E008C8121F08C1002AFAD170477047DF
:1022F000002001E001C1121F002AFBD1704700003D
:10230000402300080000002028000000E022000810
:102310008C0A01080008002090020000E02200085A
:10232000682300082800002000040000F0220008B4
:102330001C0D0108000D0020F8640000F0220008C8
:1023400000A24A0400000000000000000102030493
:10235000060708090000000001020304010203044B
:08236000060708090204060843
:020000040800F2
:1040000008B500210091491EC26851606FF08041DF
:10401000C2685161009921F0004101F10041009115
:10402000009921F4006101F5006100910099C268D6
:10403000916108BDF8B504460026002500200090D7
:1040400000BF032002F0ACFCE06800690090681C2F
:104050000546F849884201D90020F8BD0098C00FF4
:104060000028EED00025009820F00100401C0090B0
:104070000098E168086100BFE06800690090681C72
:104080000546EC49884200D904E0009800F00100A0
:104090000028F1D100BF032002F082FC3046DCE7AB
:1040A0002DE9F04104460026E078B0B90027002051
:1040B000DD1C4FEAE57805EB98784FEAA80704F194
:1040C000D00555F822C000BF04E00D68CCF80050C0
:1040D000401C091DB842F8D300BF3046BDE8F0814E
:1040E000F0B503460024D01CC71700EB9777BD102E
:1040F000D3F8D06000BF03E030680860641C091D7D
:10410000AC42F9D30846F0BD70B502460C46002318
:1041100000200025D5700125957040259580012C43
:104120000CD14FF0A0430125D57208251570042548
:1041300055709D15D580022515720AE04CB9BE4B0D
:104140000025D5720C251570062555704FF4A06515
:10415000D580D36003F500651561002110E003F5FB
:10416000106505EB411602F1180545F8216003F5CD
:10417000306505EB411602F1540545F82160491CF4
:1041800055788D42EBD803F5806555614035C2F80E
:10419000CC50002108E003F5A06505EB411602F1C3
:1041A000900545F82160491C15788D42F3D800210F
:1041B00008E003F5805505EB013602F1D00545F81E
:1041C0002160491C15788D42F3D803F56065C2F86B
:1041D0000C5170BD3EB504460025002002900190B0
:1041E0000090207A01283DD1E068806B0190019811
:1041F00020F480300190607A28B1019820F480107A
:1042000000F5801001900198E16888630020029019
:10421000E068C0680290029820F040000290029886
:1042200020F480000290029820F40030029002985E
:1042300020F4002002900298E168C8602046FFF751
:10424000F9FEE07801283DD1009820F01E000A30E8
:104250000090009820F02000203000900098E16845
:1042600088602FE0E068C0680290029820F040006B
:10427000403002900298E168C8602046FFF7DAFEFD
:1042800000200190019820F4803000F580300190EA
:10429000019820F4802000F580200190019820F4FE
:1042A000002000F500200190607A28B1019820F4E8
:1042B000801000F5801001900198E1688863142057
:1042C00002F07DFBE07801280FD1E0688068009063
:1042D000009820F01E000A300090009820F0200086
:1042E000203000900098E168886028463EBD08B5FF
:1042F0000146002000220092009A22F00102521C86
:104300000092CA689268009B1A43CB689A6008BD05
:1043100008B50146002000220092009A22F0010216
:10432000521C0092CA689268009B9A43CB689A60BC
:1043300008BDF8B504460D46002600270020009071
:10434000009820F0200020300090009865F38A103B
:1043500000900098E168086100BFE0680069009083
:10436000781C07463349884200D904E00098C0F31E
:1043700040100028F1D100BF032002F011FB3046AD
:10438000F8BDF8B5044600250026002000900098EE
:1043900020F01000103000900098E168086100BF24
:1043A000E06800690090701C06462249884200D9E6
:1043B00004E00098C0F300100028F1D100BF0320F2
:1043C00002F0EEFA2846F8BDF8B504460D46002680
:1043D000E068C0680090009820F0005000900098BD
:1043E00020F080400090012D06D1009820F0005070
:1043F00000F10050009006E02DB9009820F08040B8
:1044000000F1804000900098E168C860322002F01E
:10441000D6FA3046F8BD0146C868406900F0010090
:10442000704700B502461046FFF7F5FF012805D09A
:10443000012000BD400D0300000004400020F8E70B
:1044400000B502461046FFF7E6FF012800D100BD87
:104450000020FCE701460020CA685069CA689269DA
:10446000104070470146C8684068704708B5026947
:1044700012680092009A61F301020092009B0269A7
:10448000136008BD38B50446002500200090E1689F
:1044900088616FF08040E16848612046FFF7B0FD19
:1044A000E07820B9009820F01000103000900098BB
:1044B00020F4006000F500600090009820F4805027
:1044C00000F580500090009820F4005000F5005056
:1044D0000090009820F4802000F580200090009843
:1044E00020F4002000F500200090009820F0080043
:1044F00008300090009820F4801000F580100090A3
:10450000009820F4001000F500100090009820F0B2
:10451000804000F180400090009820F00400001DD1
:104520000090E0688069009988430843E1688861E9
:10453000284638BD70B588B0044600260020079094
:1045400006900590049003900021D4F80C010160BE
:10455000206900680690069820F4C05006900699DD
:1045600020690160E07A01283FD103212046FFF74E
:104570007DFF8020E1684862059880B200F5001058
:10458000059005986FF30F00803005900598E1685D
:104590008862059800EB1041049861F30F000490C5
:1045A000049880B200F5000004900498E168C1F816
:1045B0000401049800EB104161F30F00049004988B
:1045C00080B200F5001004900499E068C0F808116A
:1045D000049800EB104161F30F000490049880B23E
:1045E00004900499E068C0F80C1110212046FFF7F0
:1045F000A0FE2046FFF7C5FE002120690161206969
:104600004161491E2069816100212069C161002545
:104610002CE004F1180050F8250000680790079876
:10462000C00F70B100200790079820F0804000F183
:1046300080400790079820F0006000F1006007902C
:1046400001E00020079004F1180050F825000799B8
:104650000160002104F1180050F825000161FF21DC
:1046600004F1180050F8250081606D1C6078A842A4
:10467000CFD800252CE004F1540050F82500006844
:1046800001900198C00F70B100200190019820F0B6
:10469000804000F180400190019820F0006000F11E
:1046A0000060019001E00020019004F1540050F8F6
:1046B000250001990160002104F1540050F8250003
:1046C0000161FF2104F1540050F8250081606D1C48
:1046D0006078A842CFD800200390039820F480701F
:1046E00000F58070039020690069039988430843AE
:1046F00021690861E07801281DD10020029002980C
:1047000020F00100401C0290029820F00200801C62
:1047100002904021029861F38A000290029820F4EE
:10472000803000F580300290029861F35940029089
:104730000299206901632046FFF7A4FE304608B0C5
:1047400070BD08B5014600200A6992680092009A7F
:10475000C2F3410232B1012A06D0022A07D0032A4D
:1047600007D102E0032004E000BF022001E00120A5
:1047700000BF00BF08BD0EB5014600200022009218
:104780000A69926802928A6912680192029AC2F3D7
:10479000410232B1012A05D0022A09D0032A0DD1E3
:1047A00001E000BF00BF019A6FF30A02019205E029
:1047B000019A6FF30A02D21C019200BF00BF019B55
:1047C0008A691360009A22F4807202F58072009266
:1047D0000A695268009B9A431A430B695A600EBDDE
:1047E0003CB5024600200024019400944C78012C32
:1047F0000CD10D7802F1180454F825300D780124FD
:10480000AC40009D64F30F0500950BE00D7802F1BC
:10481000540454F825300D780124AC40009D64F315
:104820001F4500951C680194019CC4F3C034E4B991
:104830000D89019C65F30A040194CD78019C65F310
:10484000934401948D79019C65F399540194019CE2
:1048500024F0805404F180540194019C24F4004419
:1048600004F500440194019C1C601469E469009DF6
:104870002C431569EC613CBD3CB502460020002488
:10488000019400944C78012C0CD10D7802F118049D
:1048900054F825300D780124AC40009D64F30F05D9
:1048A00000950BE00D7802F1540454F825300D7892
:1048B0000124AC40009D64F31F450095019C24F445
:1048C00000440194019C1C601469E469009DAC43A0
:1048D0001569EC613CBDFEB505460C460026002777
:1048E000002002900190607801287DD1217805F1A7
:1048F000180050F8210000680290217805F1180096
:1049000050F8210000690190606948B901986FF37F
:10491000120001900121019861F3DC40019017E041
:104920006169019861F3120001906069401EA168FD
:104930000844B0FBF1F1019861F3DC400190E078AC
:10494000012805D1019820F0C04000F100500190ED
:10495000227805F1180050F8220001990161E878E9
:10496000012807D1227805F1180050F822002169AA
:1049700041610DE0E07801280AD0606940B12178FA
:10498000012000FA01F72869406B38432969486320
:10499000E078012813D12869806800900098C0F35E
:1049A000002030B9029820F0005000F10050029031
:1049B00005E0029820F0805000F1805002900298AB
:1049C00020F0806000F180600290029820F00040AA
:1049D00000F100400290227805F1180050F8220002
:1049E00002990160E07800E009E001286CD1A08A1A
:1049F00083B222782846E168FFF752FB64E0217811
:104A000005F1540050F8210000680290217805F16A
:104A1000540050F8210000690190606950B9A16804
:104A2000019861F3120001900121019861F3DC40CB
:104A3000019013E0A068401E61690844A168B0FBC2
:104A4000F1F1019861F3DC4001900198C0F3C94095
:104A5000A1684843019960F312010191227805F1A0
:104A6000540050F8220001990161E878012806D12C
:104A7000227805F1540050F8220021694161E07864
:104A800001280ED1607930B1029820F0005000F179
:104A90000050029005E0029820F0805000F1805014
:104AA0000290029820F0806000F1806002900298ED
:104AB00020F0004000F100400290227805F15400FF
:104AC00050F82200029901603046FEBDFEB5024654
:104AD000002000240025029500954D78012D52D12B
:104AE00093691D6802951D6900954D6955B9009D32
:104AF00025F07F050095009D25F4C01505F50025DE
:104B0000009516E08E684D69B54207D98D684D61F4
:104B10000E7A009D66F30605009504E00E7D009D6B
:104B200066F306050095009D25F4C01505F50025E2
:104B30000095009D1D61D578012D06D10F7802F1F9
:104B4000180555F827500E696E61029D25F08065A5
:104B500005F180650295029D25F0004505F10045AF
:104B60000295029D1D60D578002D59D14D69002D0B
:104B700056D00E780125B5402C4315696D6B254341
:104B8000166975634CE00E7802F1540555F826500D
:104B90002D6802950E7802F1540555F826502D69BE
:104BA00000954D695DB90E7A009D66F30605009586
:104BB000009D25F4C01505F5002500950CE08D68D5
:104BC0004D610E7A009D66F306050095009D25F463
:104BD000C01505F5002500950F7802F1540555F82C
:104BE0002750009E2E61D578012D06D10F7802F155
:104BF000540555F827500E696E61029D25F08065B9
:104C000005F180650295029D25F0004505F10045FE
:104C100002950F7802F1540555F82750029E2E6038
:104C2000FEBD38B503460A4600200024009454789F
:104C3000012C18D1157803F1180454F825100C68CC
:104C40000094009CE40F2CB1009C24F0804404F1FB
:104C500080440094009C24F4001404F50014009493
:104C6000009C0C600EE0157803F1540454F82510F4
:104C70000C680094009C24F4001404F500140094C3
:104C8000009C0C6038BD38B5034600200024009419
:104C90004C78012C05D10D7803F1180454F8252027
:104CA00004E00D7803F1540454F8252014680094AE
:104CB000009C24F400140094CC78032C02D0CC780F
:104CC000022C05D1009C24F0805404F180540094FF
:104CD000009C146038BD0146086982690869C06992
:104CE0000240100C7047024602F1540353F8213081
:104CF000986813695B6918407047014608698269C2
:104D00000869C069024090B270470EB50021019158
:104D1000019921F04041A1F180410191019921F4D3
:104D2000C01101F500210191019921F07F01183195
:104D30000191019A416D0A61C178012915D10021C3
:104D4000009100F2CC51426D5161416D09680091B2
:104D5000009921F0004101F1004100914FF08021C4
:104D60000091009A416D0A6000BF0EBD3EB5044639
:104D70004FF48C70005968B32069806801900198E5
:104D800000F0010030B3A07A70B1D4F80C010090AB
:104D9000009820F002000090009820F001000090A0
:104DA0000099D4F80C01016000200290029820F0D4
:104DB0000100401C02902069406802990843216963
:104DC0004860052001F0FBFD206940680299884396
:104DD000216948603EBD0CB5817AB1B1016989682D
:104DE0000191019901F0010171B1D0F80C1100910C
:104DF000009921F002010091009921F00101009138
:104E0000009AD0F80C110A6000BF0CBD70B50446C2
:104E100001214FF48970015500250BE0FF2104F1B9
:104E2000180050F82500816004F1540050F8250066
:104E300081606D1C6078A842F0D800212069016172
:104E4000206941612069C161491E20698161204654
:104E5000FFF797FA10212046FFF76BFA70BD38B5BF
:104E600003460020002400944C78012C14D10D78C6
:104E700003F1180454F8252014680094009CC4F32E
:104E800040540CB110201EE0009CC4F340440CB10F
:104E9000202018E0302016E00D7803F1540454F877
:104EA000252014680094009CC4F3405414B14FF4BE
:104EB000805008E0009CC4F3404414B14FF400500B
:104EC00001E04FF4405038BDF8B507460D46144692
:104ED00000200090687801283CD1297807F118005B
:104EE00050F8216030680090102C04D129463846D3
:104EF000FFF797FEF8BD202C06D1009820F0006047
:104F000000F10060009068E0302C1DD10098C0F3E3
:104F1000405030B10020687129463846FFF7B3FE93
:104F2000E8E7009820F0806000F180600090009831
:104F300020F4004000F500400090009820F0004070
:104F400000F10040009048E0ECBB009820F40040E5
:104F5000009042E0297807F1540050F82160306851
:104F60000090B4F5805F06D1009820F4001000F5A1
:104F70000010009031E0B4F5005F06D1009820F0F9
:104F8000006000F10060009027E0B4F5405F1FD1A1
:104F90000098C0F3405030B100206871294638466F
:104FA000FFF771FEA6E7009820F0806000F18060B6
:104FB0000090009820F4004000F500400090009818
:104FC00020F0004000E008E000F10040009004E024
:104FD0001CB9009820F4004000900098306000BF99
:104FE00088E72DE9F04106460F4639463046FFF77F
:104FF0008BF801214FF4897081550021801C815567
:10500000002511E005EB850106F58E7000EBC1046B
:10501000012060702570E5800020E0704020A060D5
:105020000020E06060616D1C7078A842EAD800251D
:1050300010E005EB850106F55D7000EBC104002072
:1050400060702570E580E0704020A0600020E06086
:1050500060616D1C7078A842EBD83046FFF758F9B4
:105060003046FFF7B7F800213046FFF7ADF930467C
:10507000FFF760FA3046FFF73AF9BDE8F0812DE915
:10508000F04106460D4690461F4605F080008028F8
:1050900008D105F07F0000EB800106F58E7000EB73
:1050A000C10407E005F07F0000EB800106F55D70AC
:1050B00000EBC10405F07F00207005F08000C009FE
:1050C0006070C4F80880E770607808B12078E080EC
:1050D000022F01D10020207121463046FFF780FBCE
:1050E0000020BDE8F08170B506460C4604F0800053
:1050F000802808D104F07F0000EB800106F58E7057
:1051000000EBC10507E004F07F0000EB800106F52D
:105110005D7000EBC10504F07F00287004F0800092
:10512000C009687029463046FFF7A6FB002070BD15
:105130002DE9F04105460E461746984606F07F00D9
:1051400000EB800105F55D7000EBC104E760C4F879
:1051500014800020A061607006F07F002070E87865
:10516000012800D12761207820B921462846FFF781
:10517000ADFC03E021462846FFF7ADFB0020BDE86B
:10518000F0812DE9F04107460D461646984605F098
:105190007F0000EB800107F58E7000EBC104012059
:1051A000607005F07F002070E66026610020A0613D
:1051B000C4F81480207820B921463846FFF786FCD1
:1051C00003E021463846FFF786FB0020BDE8F0816A
:1051D00070B506460C4604F08000802808D104F023
:1051E0007F0000EB800106F58E7000EBC10505E045
:1051F00004EB840106F55D7000EBC1050120A87089
:1052000004F07F002870C4F3C0106870294630464F
:10521000FFF707FD002070BD70B506460C4604F090
:105220008000802808D104F07F0000EB800106F5A3
:105230008E7000EBC10505E004EB840106F55D709E
:1052400000EBC1050020A87004F07F002870C4F3B3
:10525000C010687029463046FFF715FD002070BD6C
:1052600070B505460C4604F08000802805D104F096
:105270007F012846FFF75DF802E02846FFF781F836
:10528000002070BD08B500220092009A61F30A1256
:10529000009202691268009B1A4303691A6008BDF4
:1052A00038B50446206940680090009820F002005C
:1052B0000090009920694160032001F080FB38BD17
:1052C00038B50446206940680090009820F002003C
:1052D000801C0090009920694160032001F06FFB61
:1052E00038BD2DE9F04105460C46002704F080004A
:1052F000802808D104F07F0000EB800105F58E7056
:1053000000EBC10605E004EB840105F55D7000EBE0
:10531000C10631462846FFF7A2FD07463846BDE8DC
:10532000F0812DE9F04105460C46174604F0800057
:10533000802808D104F07F0000EB800105F58E7015
:1053400000EBC10605E004EB840105F55D7000EBA0
:10535000C1063A4631462846FFF7B6FDBDE8F08162
:1053600038B50446E068406800900098C0F38000BB
:1053700020B1FE480068816A204688470098E168AD
:105380004860012038BD38B50446F8480068416AD5
:105390002046884700200090009820F0804000F1CF
:1053A000804000900098E1684861012038BD38B520
:1053B000044600200090ED480068016A20468847B6
:1053C000009820F4001000F5001000900098E168AB
:1053D0004861012038BD38B5044600200090E348FC
:1053E0000068C16920468847009820F4801000F5C5
:1053F000801000900098E1684861012038BD1CB51C
:1054000004462046FFF7B7F9E068C06800902046E0
:10541000FFF797F903280BD10020A0704FF400701C
:10542000A080009820F4705000F51050009009E022
:105430000120A0704020A080009820F4705000F55A
:10544000A05000900098E168C86000200190019889
:1054500020F4005000F5005001900198E168486187
:1054600001201CBD30B587B0044600200290069094
:105470000590049003900190029820F00100401CD8
:1054800002902069406802998843216948600021A0
:105490002046FEF74EFF00250BE0FF2104F1180027
:1054A00050F82500816004F1540050F82500816017
:1054B0006D1C6078A842F0D84FF0FF3120698161FF
:1054C00006986FF30F00401C0690069880B200F516
:1054D0008030069006992069C161059820F0080087
:1054E00008300590059820F00100401C05900598B3
:1054F00020F00200801C0590059920694161049804
:1055000020F00100401C0490049820F008000830AE
:105510000490049820F00200801C049004992069F3
:105520000161206900680390039820F4FE600390F5
:105530000399206901602046FFF7E7FB00200190F6
:10554000019820F4805000F5805001900198E168A6
:10555000486186480068016920468847012007B0F5
:1055600030BD7CB5044600200190019820F0100069
:1055700010300190E068806901998843E168886192
:10558000E068006A0090009800F00F0000EB8001D6
:1055900004F55D7000EBC1050098C0F34340072897
:1055A0002DD2DFE800F02C04051D1E2C1F0027E083
:1055B0000098C0F30A1090B10098C0F30A12204678
:1055C000E968FEF78DFDE8680099C1F30A11084407
:1055D000E860A8690099C1F30A110844A8610FE0C6
:1055E0000EE00DE0082204F2CC512046FEF778FDD3
:1055F000A8690099C1F30A110844A86100E000BF3E
:1056000000BFE068806901990843E1688861012072
:105610007CBD38B5044655480068C16820468847B7
:1056200000200090009820F00800083000900098BA
:10563000E1684861012038BD1FB504460020009094
:105640004FF48970005D0090484800684169204629
:10565000884720698068019000200390039820F417
:10566000006000F5006003900398E1684861A07A4B
:1056700070B3019800F0010050B340F21510005DC6
:10568000012825D19DF80000032821D10020029097
:10569000029820F00100401C0290D4F80C01006830
:1056A00002990843D4F80C110860029820F0020017
:1056B000801C0290D4F80C01006802990843D4F8C9
:1056C0000C1108602A48006840F00600284908606C
:1056D000012004B010BD3EB50446A07A70B1D4F8E4
:1056E0000C010090009820F002000090009820F03B
:1056F000010000900099D4F80C0101600020019095
:10570000019820F00100401C019020694068019937
:1057100088432169486015480068816920468847A8
:1057200000200290029820F0004000F1004002901A
:105730000298E168486101203EBD2DE9F843074623
:105740000E4600250020009006EB860107F58E70BE
:1057500000EBC104D4E90501451AA068A84200D2B3
:10576000A568E81C4FEA900804E00000300800201B
:1057700010ED00E007F1180050F826008069009055
:105780001BE0D4E90501451AA068A84200D2A5682B
:10579000E81C4FEA9008ABB2F2B23846E168FEF777
:1057A0007FFCE0682844E060A0692844A06107F11C
:1057B000180050F8260080690090009880B240459B
:1057C00006D9D4E90510884202D260690028D8D1F0
:1057D0000120BDE8F88330B5024615692B691569CB
:1057E0006C6B24FA01F505F0010543EAC51302F1DB
:1057F000180555F82150AD6805EA030030BDF8B52D
:1058000005460024002000902846FFF776FA064659
:1058100090E006F0010000287ED0E1B22846FFF7B4
:10582000DAFF0090009800F0010030B3012000FA88
:1058300004F72869406BB843296948630020009049
:10584000009820F00100401C009005F1180050F86D
:10585000240000998160E1B2B84800684268284697
:105860009047E878012808D13CB940F21110405D1A
:10587000042802D12846FFF748FA0098C0F3C00078
:1058800060B100200090009820F0080008300090DF
:1058900005F1180050F82400009981600098C0F3C9
:1058A000001060B100200090009820F0100010302F
:1058B000009005F1180050F82400009981600098CC
:1058C000C0F3801060B100200090009820F04000EC
:1058D0004030009005F1180050F8240000998160D4
:1058E0000098C0F3400060B100200090009820F0C4
:1058F0000200801C009005F1180050F82400009967
:1059000081600098C0F3C01030B121462846FFF7EF
:1059100014FF0020009000E00AE0009820F08000D2
:105920008030009005F1180050F824000099816043
:10593000641C7608002E7FF46CAF0120F8BD7CB5A6
:1059400004460025002001902046FFF7C4F90646D2
:105950006FE006F00100002869D0E9B22046FFF7A9
:10596000C2F90190019800F00100C8B30020019035
:10597000019820F00100401C019004F1540050F8FF
:10598000250001998160E078012817D104F15400C5
:1059900050F825000069009005EB850104F55D7065
:1059A00000EBC10080680099C1F31201411A05EBB8
:1059B000850204F55D7000EBC2008161E9B25F48C9
:1059C0000068026820469047E078012808D13DB978
:1059D00040F21110005D052802D12046FFF795F92D
:1059E0000198C0F3400060B100200190019820F0C0
:1059F0000200801C019004F1540050F82500019928
:105A000081600198C0F3C00088B14C48006881688B
:105A10002046884700200190019820F008000830B7
:105A2000019004F1540050F82500019981606D1C2B
:105A30007608002E8DD101207CBD7CB50546002462
:105A40002846FEF7EEFC002875D02846FEF702FD3A
:105A50000190019808B900207CBD0198C0F3C040B6
:105A600018B12846FFF76BFF04430198C0F380404C
:105A700018B12846FFF7C3FE04430198C0F3400065
:105A800050B100200090009820F00200801C00908F
:105A90000098E968486100BF0198C00F18B1284616
:105AA000FFF719FE04430198C0F3C02018B128463F
:105AB000FFF7C2FD04430198C0F3C00018B12846A7
:105AC000FFF7A7FD04430198C0F3001018B1284662
:105AD000FFF747FD04430198C0F3003018B1284692
:105AE000FFF7C0FC04430198C0F3403018B12846CA
:105AF000FFF785FC04430198C0F3005018B1284615
:105B0000FFF769FC04430198C0F3405018B12846E0
:105B1000FFF74DFC04430198C0F3807018B128468C
:105B2000FFF731FC04430198C0F3800018B1284608
:105B3000FFF716FC044320468EE7000030080020E3
:105B40000146002070472DE9F04104460F461546F6
:105B50001E46DDF81880204600F002FF2046FFF7C1
:105B6000EFFFC4F8E465C4F8E885C4F8EC5539469D
:105B70002046FFF736FAD4F8E81508688047204633
:105B800000F0F8FEBDE8F0811CB5044669462046E9
:105B900000F0F1FC9DF8000000F01F0020B101288A
:105BA00007D002280FD109E06946204600F0D0FB5B
:105BB00011E06946204600F004FC0CE069462046EE
:105BC00000F025FC07E09DF8000000F08001204671
:105BD000FFF7FEFA00BF00BF00201CBD70B50546F0
:105BE0000E46A6BB05F55D7440F21110405D03281A
:105BF0003DD1A168E069884217D9A168E069401ADF
:105C0000E061E878012803D1D4E902100844E0609B
:105C1000A368E069984201D2E06900E0A06882B21E
:105C20002846E16800F063F921E0D5F8E405006951
:105C300048B14FF48970405D032804D1D5F8E405DC
:105C4000016928468847284600F060F90FE0FFE721
:105C5000D5F8E405806950B14FF48970405D0328A0
:105C600005D1D5F8E40531468269284690470020E1
:105C700070BD01467E480268086942600020704796
:105C800070B505460E46002E51D105F58E7440F2D2
:105C90001110405D02283DD1A168E069884211D908
:105CA000A168E069401AE061E878012803D1D4E9ED
:105CB00002100844E060A08B82B22846E16800F040
:105CC000F0F827E0A168206AB0FBF1F201FB1200B6
:105CD00078B9A168206A88420BD3D4E908018842C8
:105CE00007D200221146284600F0DBF8002060624F
:105CF00010E0D5F8E405C06848B14FF48970405D04
:105D0000032804D1D5F8E405C16828468847284609
:105D100000F00EF94FF48B70405D012816D1284633
:105D2000FFF7A7FF00214FF48B7041550EE0D5F827
:105D3000E405406950B14FF48970405D032805D1F6
:105D4000D5F8E4053146426928469047002070BDE9
:105D500010B504460023402219462046FFF78FF96C
:105D60000023402280212046FFF789F901214FF4CA
:105D700089700155A078D4F8E8255168884700203B
:105D800010BD10B50446D4F8E8150869804740F204
:105D90001310015D401E015503210155002010BD67
:105DA00010B504464FF48970015D401C0155042173
:105DB000401E0155D4F8E815C8688047002010BD82
:105DC00010B50446D4F8E405C06920B1D4F8E40560
:105DD000C16920468847002010BD70B504460D46B5
:105DE000D4F8E4052946026820469047D4F8E8151F
:105DF00088688047002070BD70B504460D46D4F811
:105E0000E4052946426820469047002070BD10B541
:105E10000446D4F8E405016A20468847002010BDF6
:105E200010B50446D4F8E405416A204688470020AE
:105E300010BD10B50446D4F8E81548698047012123
:105E400040F215100155002010BD10B50446D4F8DD
:105E5000E81588698047D4F8E405002142682046A7
:105E60009047002140F215100155002010BD0000A0
:105E7000000800202DE9F04104460E461546002793
:105E8000C4F83C51C4F83851022140F211100155B8
:105E90002B46324600212046FFF773F93846BDE80D
:105EA000F0812DE9F04106460C46154600272B46A9
:105EB000224600213046FFF764F93846BDE8F081FC
:105EC0002DE9F04104460E4615460027C4F89453C8
:105ED000C4F89053032140F2111001552B4632466D
:105EE00000212046FFF724F93846BDE8F0812DE96E
:105EF000F04106460C46154600272B462246002157
:105F00003046FFF715F93846BDE8F08170B5044614
:105F10000025042140F21110015500231A461946AC
:105F20002046FFF72EF92046FEF7EFFE284670BD0B
:105F300070B504460025052140F2111001550023DB
:105F40001A4619462046FFF7F3F82046FEF7DDFE15
:105F5000284670BD024601EB810302F55D7000EB3F
:105F6000C300008B80B2704770B504460D46802197
:105F70002046FFF72DF900212046FFF729F920469A
:105F8000FEF7C3FE70BD70B504460D464FF4897030
:105F9000005D022802D0032812D100E000BF68880B
:105FA00001280CD100214FF48C700151D4F8E40584
:105FB00029468268204690472046FFF7A7FF04E065
:105FC00029462046FFF7D0FF00BF00BF70BDF8B5DF
:105FD00004460D460026688801280DD101214FF4A2
:105FE0008C700151D4F8E405294682682046904718
:105FF0002046FFF78BFF39E06888022836D12879E0
:10600000A0BB206940680090A8880612062E22D204
:10601000DFE806F02103090F151B009820F070003F
:106020001030009017E0009820F0700020300090B1
:1060300011E0009820F07000303000900BE00098E4
:1060400020F070004030009005E0009820F07000D3
:106050005030009000BF00BFF74800990160012157
:106060004FF48B7001552046FFF750FFF8BD70B517
:1060700004460D464FF48970005D022802D00328C3
:1060800013D100E000BF0120EC4908604FF48C7090
:10609000005920B10846006840F002000860022262
:1060A000E6492046FFF7E6FE04E029462046FFF7D2
:1060B0005BFF00BF00BF70BD70B504460D46E888A9
:1060C000012804D029462046FFF74EFF1AE04FF47E
:1060D0008970005D022802D003280DD105E001225D
:1060E000D7492046FFF7C6FE0BE0012204F5887170
:1060F0002046FFF7BFFE04E029462046FFF734FFA5
:1061000000BF00BF70BD70B504460D46A878CD49EC
:10611000087008460078012804DD29462046FFF76C
:1061200023FF55E04FF48970005D022802D0032858
:1061300048D117E0C348007880B1C248007884F89D
:10614000100103214FF489700155BE4801782046A3
:10615000FFF743FE2046FFF7D9FE02E02046FFF797
:10616000D5FE34E0B748007880B902214FF4897039
:106170000155B448007884F81001B24801782046EF
:10618000FFF73AFE2046FFF7C1FE1AE094F810012F
:10619000AC490978884211D094F810112046FFF7D5
:1061A0002BFEA848007884F81001A6480178204604
:1061B000FFF713FE2046FFF7A9FE02E02046FFF797
:1061C000A5FE04E029462046FFF7CEFE00BF00BF33
:1061D00070BD70B504460D46A88818BBE88808BB9A
:1061E000A87800F07F064FF48970005D032804D181
:1061F00029462046FFF7B8FE18E04FF48A7006558E
:1062000031462046FFF73EF82046FFF77FFE26B1D5
:1062100002214FF48970015508E001214FF4897083
:10622000015503E029462046FFF79EFE70BDF8B5F4
:1062300004460E467088001208286CD2DFE800F091
:106240006B0416226B6B6166A078D4F8EC150A68B3
:10625000694690470546F088402804D04FF489707D
:10626000005D012801D10820009059E0A078D4F801
:10627000E4158A6A69469047054602216970C4F8A8
:10628000F0554DE0B078062834D2DFE800F0030B7B
:10629000131B232BA078D4F8EC154A686946904765
:1062A00005462CE0A078D4F8EC158A68694690473A
:1062B000054624E0A078D4F8EC15CA6869469047F2
:1062C00005461CE0A078D4F8EC150A6969469047A9
:1062D000054614E0A078D4F8EC154A696946904761
:1062E00005460CE0A078D4F8EC158A696946904719
:1062F000054604E031462046FFF736FEF8BD00BFF4
:106300000EE031462046FFF72FFEF7E731462046E4
:10631000FFF72AFEF2E731462046FFF725FEEDE7BC
:1063200000BFBDF8000088B1F08878B1F088BDF8F2
:106330000010884202DDBDF8000000E0F088009007
:10634000BDF8002029462046FFF794FD00BFD5E7A1
:1063500070B505460C46002660780A2829D2DFE889
:1063600000F01923281E280A0528140F2146284664
:10637000FFF75DFF22E021462846FFF72AFF1DE0D8
:1063800021462846FFF7BFFE18E021462846FFF7C2
:1063900093FE13E021462846FFF769FE0EE02146F2
:1063A0002846FFF714FE09E021462846FFF7EBFDDB
:1063B00004E021462846FFF7D7FD00BF00BF304666
:1063C00070BD70B504460D4600264FF48970005D1F
:1063D000032814D1287901280CDCD4F8E4052946D7
:1063E000826820469047E88840B93EB92046FFF7CA
:1063F0008DFD03E029462046FFF7B6FD04E029465F
:106400002046FFF7B1FD00BF00BF304670BD2DE94B
:10641000F04105460E4600273479707800285FD099
:10642000012833D003287DD14FF48970405D0228C4
:106430000AD0032823D10FE0000800203C080020E8
:1064400038080020400800202CB1802C03D02146C1
:106450002846FEF7BDFE17E0708830B92CB1802CBD
:1064600003D021462846FEF7B3FED5F8E4053146B1
:106470008268284690472846FFF748FD04E03146E9
:106480002846FFF771FD00BF00BF70E04FF4897030
:10649000405D022802D003281BD107E02CB1802CDC
:1064A00003D021462846FEF793FE17E0708878B99E
:1064B0005CB1802C09D021462846FEF7ADFED5F808
:1064C000E40531468268284690472846FFF71EFDBE
:1064D00004E031462846FFF747FD00BF00BF46E015
:1064E0004FF48970405D022802D0032837D107E0BD
:1064F0002CB1802C03D021462846FEF769FE33E0FC
:1065000004F08000802812D104F07F0000EB8001AD
:1065100005F58E7000EBC100807820B10120414963
:10652000086016E022E000203E49086011E004F017
:10653000800070B904EB840105F55D7000EBC100CB
:10654000807818B101203749086002E00020354901
:106550000860022233492846FFF78CFC04E03146EC
:106560002846FFF701FD00BF00BF00E000BF00BFED
:106570003846BDE8F08190F8CC250A7090F8CD251A
:106580004A7090F8CE3590F8CF2503EB02224A806E
:1065900090F8D03590F8D12503EB02228A8090F84C
:1065A000D23590F8D32503EB0222CA80CB884FF472
:1065B000A0721350012340F2111213547047014688
:1065C000002002E0421CD0B2491C0A78002AF9D10E
:1065D00070472DE9F04104460D4617460026FCB1F0
:1065E0002046FFF7ECFF022101EB400038803A78AB
:1065F0003046711CCEB22A5403223046711CCEB2F2
:106600002A540AE014F8012B3046711CCEB22A54E9
:1066100000223046711CCEB22A5420780028F1D1D5
:10662000BDE8F0813408002070B505460E4602230F
:10663000402281212846FEF722FD0223402201212B
:106640002846FEF71CFD0323082282212846FEF778
:1066500016FDB54C0220207100206071B349086816
:1066600080474023B24A01212846FEF761FD002001
:1066700070BD70B504460D4681212046FEF733FDFE
:1066800001212046FEF72FFD82212046FEF72BFD3B
:10669000A64948688047002070BD2DE9F0410546B5
:1066A0000C463A26A34F207800F0600070B32028F3
:1066B00026D1E088D8B1207800F0800058B1E28877
:1066C00060789A498B689C499847E2889A4928469D
:1066D000FFF7D0FB11E0607898490860E08898499E
:1066E0000860E28894492846FFF7EAFB05E06078F5
:1066F0008E4900228B68114698470020BDE8F08142
:1067000021462846FFF730FC0220F7E7607806288C
:1067100004D00A2816D00B2826D119E06088212140
:10672000B1EB202F08D1834F0937E0883A2801DDEB
:106730003A2000E0E0880646324639462846FFF710
:1067400099FB11E001227F492846FFF793FB0BE0FC
:10675000A078012803DAA0787A49086003E021468E
:106760002846FFF701FC00BF00BF00BF00BF0020AC
:10677000C4E710B5044671480068FF280AD06B488A
:1067800083686F486C4902686C4800689847FF202E
:106790006A490860002010BD2DE9F04106460F4609
:1067A00069480078012830D16848006818B900208D
:1067B0006549087029E06548006840280ED964489A
:1067C000008884B240256248006840306049086013
:1067D0005E48006840385D4908600FE05C4800880A
:1067E00084B25A48008885B25948006857490968F8
:1067F0000844574908600020544908605548021968
:106800002B4681213046FEF7BCFC0020BDE8F0811C
:1068100070B504460D4605EB850104F55D7000EB8F
:10682000C100008B86B2414831460269404890471A
:1068300040233F4A01212046FEF77AFC002070BD2C
:1068400070B5064640480078012852D0404800689C
:10685000B0F5006F02D100203D4908603C48006857
:106860003D490968884203D100203749087070BD4E
:106870003748006838490968884206D934480068B2
:10688000C0F500603149086006E0334800683049CF
:106890000968401A2D4908602C48006840280ED924
:1068A0002B48008884B24025294800684030284998
:1068B0000860264800684038244908600FE02448F2
:1068C000008884B22148008885B2214800681F49A9
:1068D000096808441E49086000201C49086001201E
:1068E000194908701B4802192B4681213046FEF7D2
:1068F00048FC00BFBBE710B50446184801680068B3
:10690000401C164A1060052905D100201146086078
:106910002046FFF795FF002010BD02464320088067
:1069200004480938704700002C090020FC080020AA
:10693000420E0020B50800204C08002078080020F6
:106940007C08002044080020740800205C08002017
:1069500058080020820E002054080020F008002073
:1069600010B504460020FBF709FB01210803FBF7E3
:1069700013FC10BD38B504464FF4C060F9F77CFF36
:1069800043208DF8000001208DF8010003208DF8D0
:10699000020001208DF803006846F9F772FF38BD48
:1069A00010B50022C0EB0013DB000724B3FBF4F1A9
:1069B00000BF531C1A468B4200D910BDF9E710B531
:1069C00004464FF47A7104FB01F0FFF7E9FF10BDB4
:1069D000002070470020704701460020704770B5C6
:1069E00005460C461646042D15D007DC7DB1012D59
:1069F0000ED0022D0DD0032D3FD10BE0202D0BD05A
:106A0000212D1FD0222D36D0232D36D134E035E074
:106A100034E033E032E031E02078617840EA012070
:106A2000A17840EA0140E17840EA0160424908600B
:106A30002079087160794871A07988710120FFF789
:106A4000CBFF1BE03C48007820703B480088000AE0
:106A5000607039480068000CA07037480068000E6C
:106A6000E0703548007920713348407960713248D0
:106A70008079A07102E001E000E000BF00BF0020CB
:106A800070BD10B5024677202C4B2D4C246818554C
:106A90002B480068401C2A4B18606620274B284C66
:106AA0002468185526480068401C254B186055205E
:106AB000224B234C2468185521480068401C204B69
:106AC000186018460068B0F5006F01D1002018600A
:106AD000002010BD30B502460B460220194C207034
:106AE0000020194C20701948006868B9002106E0A0
:106AF000505C174C6054505C164C6054491C9942D1
:106B0000F6D31248036015E000210CE0505C0F4CF6
:106B100024680C440E4D2855505C0C4C24680C44E1
:106B20000C4D2855491C9942F0D308480068184478
:106B3000064C2060002030BDF4080020820E0020AA
:106B40005408002094090020C909002048080020AA
:106B5000420E0020EA2900200246122008802A481E
:106B600070470246042008802848704770B50546E3
:106B70000C462DB92246264926A0FFF72AFD04E03F
:106B8000224623492CA0FFF724FD214870BD70B593
:106B900005460C4622461E4930A0FFF71AFD1C4848
:106BA00070BD70B505460C462DB92246184930A077
:106BB000FFF70FFD04E02246154931A0FFF709FD5C
:106BC000134870BD70B505460C462DB922461049D4
:106BD0002FA0FFF7FEFC04E022460D492CA0FFF792
:106BE000F8FC0B4870BD70B505460C462DB9224621
:106BF00007492AA0FFF7EDFC04E02246044927A03C
:106C0000FFF7E7FC024870BD2C090020480900206E
:106C1000000D002053544D33322056697274756153
:106C20006C20436F6D506F727420696E2048532042
:106C30006D6F64650000000053544D333220566977
:106C4000727475616C20436F6D506F727420696E41
:106C5000204653204D6F64650000000053544D6979
:106C600063726F656C656374726F6E696373000045
:106C700030303030303030303035304200000000BD
:106C800030303030303030303035304300000000AC
:106C900056435020436F6E6669670000564350208C
:106CA000496E74657266616365000000704710B1DB
:106CB000012802D100E000E000BF00BF704770472C
:106CC00070477047704770471E480088401C80B26C
:106CD0001C4908804EF66021884202DB00201949D9
:106CE000088019480078401C174908701748007838
:106CF000401C1649087016480078401C144908705A
:106D000014480088401C1349088013480078002864
:106D100004DD11480078401E0F4908700F480078C4
:106D2000002804DD0D480078401E0C4908700C480E
:106D30000078002804DD0A480078401E08490870E1
:106D400070470000680900207409002091090020A4
:106D500092090020060A0020C8090020C909002065
:106D60009409002010B5FE49098801F0800129B975
:106D7000FB49098801F04001002975D0F9490978DB
:106D8000012905D1F8490988F84A1288914207D1AA
:106D9000F4490978002967D1F54909680029ECD040
:106DA000F0490978012973D1EF490988EF4A12881F
:106DB00091425ED0ED490988012920D1ED49C96889
:106DC000C1F3402129B11121EB4AEC4B1B88D1546E
:106DD00004E00121E84AE94B1B88D154E84A1378C2
:106DE000E64A11884A1CE54C2280E64A5354214663
:106DF0000988B1F5805F02DB002122461180DD4960
:106E0000C968C1F3402129B11121DB4ADB4B1B8842
:106E1000D15404E00121D84AD84B1B88D154D84A18
:106E2000D24B1B88D35CD54A11884A1CD34C228094
:106E3000D44A535421460988B1F5805F02DB002112
:106E400022461180CE49C94A1288895CC44A121D63
:106E50001180C6490988B1F5817F06DCC3490988DC
:106E6000491CC24A1180EFE0B1E00021BF4A118005
:106E7000EAE0BB490C31098821F08001B84A0C32A4
:106E800011801146098821F008011180DCE0FFE73C
:106E9000BD490978002976D1BC490988B1F5347F0C
:106EA00007DBBB490978012903D0BA4909780129D0
:106EB00031D1B9490968012915D1B4490988B1F519
:106EC000347F02DB0021B14A1180B44A1378AF4A03
:106ED00011884A1CAD4C2280B14A5354B1490988EB
:106EE000491CB04A1180A9490988B1F5347F02DBF9
:106EF0000021A64A1180A94AA74B1B68D35CA34A6C
:106F000011884A1CA14C2280A54A5354A5490988DE
:106F1000491CA44A1180A0490968062919D2DFE852
:106F200001F018030405060700BF00BF00BF00BF43
:106F300099490A680968491C974B19609749895C07
:106F4000874A121D11808A490968491E884A1160C2
:106F500005E00021904A1160854A116000BF00BF22
:106F60008349096800296FD17D490C31098821F0D6
:106F700080017B4A0C3211801146098841F0C00122
:106F8000118061E0FFE784490A680968491C824B67
:106F900019608549895C724A121D1180744909681B
:106FA000491E734A116011460968C9BB0021764A1F
:106FB00011706B490C31098821F08001684A0C324C
:106FC00011801146098841F0C00111803CE06449FC
:106FD000098801F0400119B36249097829B90021F3
:106FE0006D4A11600121714A11705D490C310988A7
:106FF00021F080015A4A0C3211801146098821F093
:10700000080111801146098821F0C001118000207B
:1070100038B15849096941F40071564A116106E0D6
:1070200012E05449496941F40071524A51614C4996
:107030000C31098841F00401494A0C321180114693
:10704000098841F02001118010BD18B54449091D7F
:10705000098800914749C968C1F3402129B110222C
:107060004549464B1B88CA5404E000224249434B21
:107070001B88CA549DF80030404A11884A1C3F4C76
:107080002280404A535421460988B1F5805F02DBD3
:1070900000212246118046490978012914D1454929
:1070A000097889B94449097819B14349097801290E
:1070B0000AD14249097839B99DF80010AA2903D1AB
:1070C00001213E4A117027E22549098801F0080193
:1070D00021B92349098801F0080159B10021234A47
:1070E0001180354A11709DF800203549324B1B78CC
:1070F000CA5411E23149097801296DD19DF8002067
:107100001F491A4B1B88CA549DF800102D4A174B73
:107110001B88D15401212C4A117002212B4A117075
:107120002B490978491C2A4A117010490988B1F580
:10713000817F66DC0D49098803295CDD1049897867
:107140000F4AD2784FF4807303FB0211891D074A5E
:10715000128891424FD100211C4A11701D493CE018
:1071600000440040CD090020500A00204E0A0020B3
:107170006408002000100140283D0020580A00202B
:10718000E83B0020284D0020CB090020180A0020F1
:10719000D3090020D509002060080020DC09002068
:1071A00004340020160A0020A43B0020C00900205F
:1071B000E3090020CC0900208C090020CE09002022
:1071C000D6090020E8310020C1090020C8090020AC
:1071D0008D090020B409002017E0096801F00101C1
:1071E00019B10021E24A118096E1E1490988491C60
:1071F000DF4A118090E1DE490988491CDC4A118090
:107200008AE10021DA4A118086E19DF80010D94A0E
:10721000D94B1B78D154D9490978022974D1D64960
:107220000978062972D2DFE801F003191A1B1C3510
:107230009DF8011000290BDDD149098821F02001BA
:10724000CF4A11801146098821F00401118004E021
:10725000C9490978491CC84A11705BE000BF00BFEA
:1072600000BF9DF8011000290EDDC549098821F0F5
:107270002001C34A11801146098821F004011180C0
:107280000021BD4A117004E0BB490978491CBA4A83
:1072900011703FE09DF8011019BBB6490978B54A55
:1072A00052781144B34A92781144B24AD2781144C8
:1072B000B04A12798818C1B201EB2020C1B201EBAB
:1072C0002021C94388B2C1B2AA4A5279914209D158
:1072D0000121AC4A11700021AB4A11700121AB4A67
:1072E000117002E00121A84A1170A549098821F016
:1072F0002001A34A11801146098821F00401118060
:1073000000219D4A117005E035E0FFE700219A4A0F
:10731000117000BF00BF9E490988B1F5347F03DBBF
:107320009C490978012925D199490988B1F5347F0B
:1073300002DB0021964A11808F49097801290BD17F
:107340009DF8002042F0C003914A11884A1C904CDD
:107350002280914A535408E09DF800308C4A1188ED
:107360004A1C8B4C22808C4A53548C490988491CF6
:107370008A4A1180D0E09DF80110002905DD7E4980
:10738000097811B100217C4A11707B4909780629DE
:1073900075D2DFE801F0032D2E2F30369DF8011055
:1073A00001B985E07E490978012905D100217C4A8F
:1073B00011700121774A11706E490978FF2903D1B4
:1073C0000121784A11700DE06A49097849B169498B
:1073D0000978754A1278914203D10021714A1170DF
:1073E00000E065E064490978491C634A11705FE078
:1073F00000BF00BF00BF60490978491C5E4A117098
:1074000056E05C4909785B4A52781144594A9278AF
:107410001144584AD2781144564A12798818C1B298
:1074200001EB2020C1B201EB2021C94388B2C1B2D7
:10743000504A5279914230D10121524A11704D493E
:10744000097864291CD14B494978022918D1494946
:107450008978022914D14749C978FF2910D14549B3
:107460000979CA290CD143494979CC2908D14F4916
:10747000096821F0200120314C4A116006E013E038
:107480004A49096821F02001484A116000213E4A1A
:10749000117001213D4A117002E001213A4A117038
:1074A0000021354A117003E00021334A117000BFFA
:1074B00000BF37490988B1F5347F07DB35490978C2
:1074C000012903D03A490978012925D13049098891
:1074D000B1F5347F02DB00212D4A11809DF80110A7
:1074E00000290BDD9DF8002042F08003284A118816
:1074F0004A1C274C2280284A535408E09DF800304B
:10750000234A11884A1C224C2280234A535423497F
:107510000988491C214A118026490968B1F5006F84
:1075200002D10021234A116018BD10B514480C384F
:10753000008800F0200010B1FFF787FD16E010482A
:107540000C38008800F0080010B1FFF77EFD0DE058
:107550000B480C38008800F0800028B908480C3827
:10756000008800F0400008B1FFF7FCFB10BD0000F0
:107570004E0A0020D60900208C090020E3090020D3
:107580000C440040C1090020C2090020CC090020A1
:10759000180A0020D309002004340020160A002015
:1075A000D4090020CA09002090090020B009002059
:1075B000D50900205408002008B55C4800680090F8
:1075C000009800F00300401E5949087008460078F2
:1075D000022801DD002008705548007820B10128FC
:1075E00003D002280DD106E00CE052480088401C70
:1075F0005049088006E050480088401C4E490880E9
:1076000000E000BF00BF009800F0100020B14B4820
:107610000088401C494908804548007800EB8000FC
:10762000474901EB8002002140480C38F9F719FC6A
:10763000012044490870002202213C480C38F9F727
:107640002BFD41480078652869D03948007800EB67
:1076500080003B4951F8200040F27771884258D1B0
:107660003348007800EB8000354901EB8000807AD8
:1076700008284ED12E48007800EB800001EB8000F6
:10768000C07A112845D12A48007800EB800001EB30
:107690008000007B33283CD12548007800EB800037
:1076A00001EB8000407B552833D12148007800EB66
:1076B000800001EB8000807B77282AD11C4800786D
:1076C00000EB800001EB8000C07B992821D1184895
:1076D000007800EB800001EB8000007CBB2818D113
:1076E0001348007800EB800001EB8000407CDD282F
:1076F0000FD10F48007800EB800001EB8000807C08
:10770000FF2806D11148006820F0400040300F49A2
:10771000086065200C49087003200D49087001209D
:107720000C49087008BD7047704770470C640040F2
:10773000D1090020660A0020680A00206A0A002099
:10774000BC7100205C0A0020E3090020B40900207D
:10775000E2090020D009002042F227304FF0E0215A
:10776000486102200861002088610846006940F0F5
